:020000040800F2
:10000000D006002089010008370F00085B0E0008A9
:10001000350F00088F02000877100008000000006C
:100020000000000000000000000000003B0F00087E
:100030002D04000800000000390F00083D0F0008E3
:10004000A3010008A3010008A3010008A301000800
:10005000A3010008A3010008A3010008A3010008F0
:10006000A3010008A3010008A3010008A3010008E0
:10007000A3010008A3010008A3010008A3010008D0
:10008000A3010008A3010008A3010008A3010008C0
:10009000A3010008A3010008A3010008A3010008B0
:1000A000A3010008A3010008A3010008A3010008A0
:1000B000A3010008A3010008A3010008A301000890
:1000C000A3010008A3010008A3010008A301000880
:1000D000A3010008A3010008A3010008A301000870
:1000E000A3010008A3010008A301000800F002F822
:1000F00000F03AF80AA090E8000C82448344AAF188
:100100000107DA4501D100F02FF8AFF2090EBAE885
:100110000F0013F0010F18BFFB1A43F0010318473B
:10012000B8130000D8130000103A24BF78C878C173
:10013000FAD8520724BF30C830C144BF04680C60ED
:10014000704700000023002400250026103A28BF35
:1001500078C1FBD8520728BF30C148BF0B60704739
:100160001FB51FBD10B510BD00F058F81146FFF7C0
:10017000F7FF00F091FF00F076F803B4FFF7F2FF0D
:1001800003BC00F07DF8000009488047094800479B
:10019000FEE7FEE7FEE7FEE7FEE7FEE7FEE7FEE737
:1001A000FEE7FEE704480549054A064B7047000094
:1001B0009F0F0008ED000008D0000020D0060020AE
:1001C000D0020020D00200204FF0000200B51346FC
:1001D00094469646203922BFA0E80C50A0E80C5067
:1001E000B1F12001BFF4F7AF090728BFA0E80C5018
:1001F00048BF0CC05DF804EB890028BF40F8042B11
:1002000008BF704748BF20F8022B11F0804F18BF7D
:1002100000F8012B7047704770477047754600F033
:100220002BF8AE4605006946534620F00700854688
:1002300018B020B5FFF7B6FFBDE820404FF000062C
:100240004FF000074FF000084FF0000B21F00701BE
:10025000AC46ACE8C009ACE8C009ACE8C009ACE801
:10026000C0098D46704710B50446AFF300802046A4
:10027000BDE81040FFF781BF0048704770000020C4
:1002800001491820ABBEFEE7260002007047FEE7DA
:1002900000F050BD036800225A620068426A8A4238
:1002A000FCD370474068FFF7F5BF30B40129029CCA
:1002B00002D0022903D005E044F2506101E042F689
:1002C000E0610180C3600481426030BC1046FFF7EA
:1002D000DFBF2DE9F0410746002500F061F800245A
:1002E0000126384600F021F80028FAD028213846A7
:1002F000FFF7D8FF384600F018F880B1C4F10701C5
:1003000006FA01F02843C5B2384600F00EF800287E
:10031000FAD1641C082CE4DB2846BDE8F081C4F166
:10032000070006FA00F08543EEE70189C06800F097
:1003300081B900002DE9F047054600F040F8284655
:10034000FFF7C7FF81462846FFF7C3FF80462846D0
:10035000FFF7BFFF07462846FFF7BBFF06462846C4
:10036000FFF7B7FF044646EA072048EA092601F0EE
:100370003FF80A4F00223B4600F0E2FE00F0AEFEDE
:100380002861304601F034F800223B4600F0D8FEE8
:1003900000F0A4FE68612046BDE8F087000024401C
:1003A0001FB50021009101910291039101890091F3
:1003B00001210291C068694600F04CF81FBD7FB56D
:1003C000002504460095019502950395008900904B
:1003D00001200190022003902E466946E06800F05B
:1003E00039F821893246E06800F029F92188204651
:1003F000FFF758FF2046FFF7D3FF28212046FFF7DD
:1004000051FF2046FFF791FF40B928212046FFF712
:1004100049FF2046FFF789FF00B101252046FFF77D
:1004200084FF0028FAD104B0284670BD7047000050
:1004300070B5044600F008F90546601C02D0044877
:100440000078044400F000F9401BA042FAD370BDCC
:10045000000000202DE9F84FDFF8B891002409F1E1
:10046000040A0AF1040B23460F270BF1040EC9E01E
:100470000125A5402A40AA427DD1674ED1F804C08B
:10048000ACEB0608B44532D014DCBCF1030F3AD013
:1004900009DCBCF1000F2AD0BCF1010F1CD0BCF16B
:1004A000020F31D11DE0BCF1110F17D0BCF1120FBA
:1004B0002AD119E0B8F5881F19D006DCB8F5803FBD
:1004C00015D0B8F5801F1FD111E0B8F5001F0ED070
:1004D000B8F5041F18D10AE0CB6815E0CB681B1DE6
:1004E00012E0CB6808330FE0CB680C330CE08B686C
:1004F0002BB1012B4FF0080303D0456104E0042326
:1005000002E0056100E00023FF2A01D8064601E071
:1005100000F104064FEA840501D9A5F12005D6F8BB
:10052000008007FA05FC28EA0C0803FA05F548EAFA
:100530000508C6F800804D68ED0062D5374DAE69FC
:1005400046F00106AE61AD6924F0030605F0010531
:100550000095334D06EB050CDCF80850A607360F66
:1005600007FA06F825EA0805DFF8B880404503D108
:100570004FF0000817E044E0DFF8AC80404502D1BE
:100580004FF001080FE0DFF8A480404502D14FF0A2
:10059000020808E0DFF89880404502D14FF00308D8
:1005A00001E04FF0040808FA06F848EA0508CCF81C
:1005B00008804D68D9F80060ED034D4601D516431B
:1005C00000E096432E604D68DAF80060AD035546B2
:1005D00001D5164300E096432E604D68DBF80060BD
:1005E000ED025D4601D5164300E096432E604D684E
:1005F000DEF80060AD02754601D5164300E0964373
:100600002E60641C0D682A46E5407FF431AFBDE8DA
:10061000F88F00000004014000001110001002409B
:100620000000014000080140000C014000100140A2
:10063000001401408068084000D0012070470AB1D2
:10064000016170470904FBE70148806870470000BA
:1006500000000020024881680278114481607047E0
:1006600000000020074810B5016841F0100101604A
:10067000032000F067F80F2000F006F800F024F8DF
:10068000002010BD0020024070B50D4D04464FF40F
:100690007A712878B1FBF0F00A490968B1FBF0F0F3
:1006A00000F0BEFA48B9102C07D200222146501E95
:1006B00000F028F800206C6070BD012070BD0000C3
:1006C000000000200C0000200C4808B5816941F0B2
:1006D00001018161816901F001010091C16941F06D
:1006E0008051C161C06900F08050009004484168A9
:1006F00021F0E06141F00071416008BD001002404E
:1007000000000140F0B40E4B1B680C46C3F30223FB
:10071000C3F10705042D00D90425191D072901D2AD
:10072000002300E0DB1E012606FA05F1491E2140E8
:1007300099409E40761E16403143F0BC00F09CBCB0
:100740000CED00E0064900F0070208684FF6FF03D1
:10075000184040EA0220034A104308607047000036
:100760000CED00E00000FA052DE9F0470F4605000A
:1007700061D0434E306800F00700B84209D23068BB
:1007800020F0070038433060306800F00700B842BE
:1007900051D128683B4C810712D5400703D56068CA
:1007A00040F4E06060602878000703D5606840F49A
:1007B000605060606068A96820F0F00008436060E5
:1007C0002878C00728D06868012810D0216802283E
:1007D00010D0890700292EDA616821F00301014356
:1007E0006160FFF731FF804641F288390DE02168F2
:1007F0008903EFE78901EDE7FFF726FFA0EB08018A
:10080000494502D90320BDE8F0876068696800F0B7
:100810000C00B0EB810FEFD1306800F00700B84258
:100820000BD9306820F0070038433060306800F0A2
:100830000700B84201D00120E5E72878400705D538
:100840006068E96820F4E060084360602878000789
:1008500006D56068296920F4605040EAC1006060F4
:1008600000F018F86168084AC1F30311515CC840F0
:100870000649086006480068FFF706FF0020C2E747
:100880000020024000100240C81400080C000020A4
:100890000400002012A185B00FC98DE80F0014A03C
:1008A000144A006804905168134801F00C03042BAB
:1008B00010D0082B0ED1C1F38343C9031DF80300E8
:1008C0000AD5516804AAC1F34041515C0A4A504319
:1008D000B0FBF1F005B0704708494843FAE7000063
:1008E00002030405060708090A0B0C0D0E0F101071
:1008F000010200000010024000127A0000093D00D1
:100900002DE9F84F040070D02078C04DC00749D0C1
:100910006868C0F38100012807D06868C0F38100CF
:10092000022809D16868C00306D52868800339D534
:1009300060680028E7D035E06068B0F5803F0BD0F4
:1009400010B1B0F5A02F11D0286820F480302860B5
:10095000286820F4802002E0286840F48030286075
:10096000606890B1FFF770FE06460AE0286840F420
:1009700080202860F0E700BFFFF766FE801B642838
:1009800073D828688003F7D50CE0FFF75DFE0646B4
:1009900005E000BFFFF758FE801B6428F0D82868E8
:1009A0008003F7D420789A4E80074FF001094FF06A
:1009B000000839D5686810F00C0F07D06868C0F3DC
:1009C0008100022809D16868C00306D4286880071E
:1009D00014D52069012808D110E02069B0B1C6F80B
:1009E0000090FFF731FE074605E00AE1FFF72CFE15
:1009F000C01B0228C4D828688007F7D52868616919
:100A000020F0F80040EAC10028600DE0C6F8008040
:100A1000FFF71AFE074604E0FFF716FEC01B022888
:100A200023D828688007F7D4207800072CD5794888
:100A3000A169D9B1C0F80090FFF706FE074604E0AF
:100A4000FFF702FEC01B02280FD8686A8007F7D59F
:100A500071484FF4FA510068B0FBF1F0009000BF0C
:100A60000098411E0091FAD20EE080E0C0F80080AC
:100A7000FFF7EAFD074604E0FFF7E6FDC01B02288A
:100A800075D8686A8007F7D42078400760D5E86990
:100A90000027C00008D4E86940F08050E861E869A8
:100AA000012700F0805000905C480168C90513D40C
:100AB0000168834641F480710160FFF7C5FD8246FD
:100AC00006E000BFFFF7C0FDA0EB0A0064284ED887
:100AD000DBF80000C005F5D5E06801280AD008B1B0
:100AE000052813D0286A20F001002862286A20F027
:100AF000040002E0286A40F001002862E06841F248
:100B0000883B98B1FFF7A0FD82460BE0286A40F0D1
:100B100004002862EEE700BFFFF796FDA0EB0A0194
:100B200059455AD8286A8007F6D50CE0FFF78CFDA6
:100B3000824605E0FFF788FDA0EB0A0159454CD835
:100B4000286A8007F6D41FB1E86920F08050E86178
:100B5000E06988B36968C1F38101022944D00228A1
:100B6000C6F8608004D0FFF76FFD044638E034E03B
:100B7000FFF76AFD074604E0FFF766FDC01B022889
:100B80002BD828688001F7D4206AB0F5803F05D1C2
:100B90006868A16820F4003008436860D4E908015F
:100BA0000843696821F4741108436860C6F86090CE
:100BB000FFF74AFD044606E025E000BFFFF744FDCD
:100BC000001B022809D828688001F7D51BE000BF68
:100BD000FFF73AFD001B022802D90320BDE8F88F79
:100BE00028688001F4D40EE00128F7D06868226AF2
:100BF00000F48031914204D1616A00F4701088429F
:100C000001D00120EAE70020E8E7000000100240E0
:100C100000004242800442420C000020007000406C
:100C200010B5401EB0F1807F01D3012010BD4FF000
:100C3000E02460610F21601700F01EFA0020A0611F
:100C400007202061002010BD70B590F83C20012ADB
:100C500026D0012480F83C40022280F83D20036821
:100C60005A689D6822F070060A6832435A600D4B3C
:100C700002689A4208D0B2F1804F05D00A4B9A42DE
:100C800002D00A4B9A4204D1496825F080031943E7
:100C9000916080F83D40002180F83C10084670BD0E
:100CA000022070BD002C01400004004000080040FC
:100CB00010B5040003D094F83D0010B107E0012006
:100CC00010BD002084F83C00204600F01FF80220F0
:100CD00084F83D00211D206800F062F9012084F8AD
:100CE000460084F83E0084F83F0084F8400084F811
:100CF000410084F8420084F8430084F8440084F8FA
:100D0000450084F83D00002010BD000008B50068D3
:100D10000649884208D10648C16941F00401C16111
:100D2000C06900F00400009008BD00000008004009
:100D30000010024090F83D10012901D001207047B9
:100D4000022180F83D1000680B49884208D0B0F1BC
:100D5000804F05D00949884202D00949884204D110
:100D6000816801F00701062903D0016841F0010103
:100D70000160002070470000002C0140000400408A
:100D80000008004070B5044690F83C00012817D0D8
:100D9000012584F83C50022084F83D0020688268D8
:100DA00022F0770222F47F4282600868502830D017
:100DB0000DDC20284DD005DC98B310283BD148E04D
:100DC000022070BD302844D0402834D139E060285A
:100DD00028D0702806D0B0F5805F2CD0B0F5005F29
:100DE00029D10AE0CB68D1E90121206800F00EF991
:100DF0002068816841F0770109E0CB68D1E90121E1
:100E0000206800F003F92068816841F48041816026
:100E100011E0CA684968206800F00AF9502120688A
:100E200007E016E0CA684968206800F012F96021FE
:100E3000206800F0F5F884F83D50002084F83C006C
:100E400070BDCA684968206800F0F2F84021206847
:100E5000EFE7226801461046EBE7FEE770B586B083
:100E6000002418480094019402940394816941F08D
:100E700020018161816901F020010491816941F0C3
:100E800008018161816901F008010491816941F0E3
:100E90000401816180690C4E00F004004FF480452C
:100EA0000490002229463046FFF7C9FB0120009537
:100EB000CDE901040220039069463046FFF7CAFAE3
:100EC00006B070BD00100240000C014010B586B0A5
:100ED0000024174800940194029403940494134945
:100EE000059401604721C0E901144FF6FE71C0E985
:100EF00003148461FFF7DCFE08B172B6FEE74FF41D
:100F00008050009069460A48FFF73CFF08B172B66E
:100F1000FEE7049404A906480594FFF795FE00280F
:100F200001D072B6FEE706B010BD00000008004018
:100F300010000020FEE7FEE770477047FFF78ABB0E
:100F400030B58FB028216846FFF73EF914210AA872
:100F5000FFF73AF901210804CDE9001000240294BA
:100F600002250491CDE907504FF4E010099068463E
:100F7000FFF7C6FC08B172B6FEE70F20CDE90A05FF
:100F80004FF48060CDE90C4002210AA80E94FFF7CF
:100F9000EBFB002801D072B6FEE70FB030BD704702
:100FA000F0B50268164B174C174D4FF0804798422A
:100FB00005D0B84203D0A04201D0A84203D122F00C
:100FC00070064A683243984205D0B84203D0A04226
:100FD00001D0A84203D122F44074CA6822434C696C
:100FE00022F08002224302608A68C2620A6882623A
:100FF000984201D10969016301214161F0BD0000FE
:10100000002C0140000400400008004010B5846836
:1010100042EA032224F47F440A432243826010BD43
:10102000826822F070020A4342F007018160704733
:1010300010B5036A046A24F001040462846924F090
:10104000F00444EA021423F00A020A4384610262B3
:1010500010BD10B5036A23F0100303628369046AAC
:1010600023F4704343EA023224F0A00343EA01115F
:101070008261016210BDFEE70907090E002804DB4A
:1010800000F1E02080F80014704700F00F0000F13C
:10109000E02080F8141D704708B5FFF7E3FAFFF76A
:1010A0004FFFFFF7DBFEFFF711FF4FF480400A4AC6
:1010B0000090084B012102F14800FFF7F6F84FF4C9
:1010C0007A7405484830FFF735F92046FFF7B0F944
:1010D000F7E70000000C01401000002021F0004262
:1010E000A2F16052B2F5801F01F0004328BFD2F197
:1010F0007F6C0BD95FEA001C43EAC20242EB5070DE
:1011000018BF704728BF20F001007047B2F5801F5C
:10111000BCBF184670474FEA410C1CF5001F02D2B5
:10112000084600F0CCB970B500F075F900000089F0
:10113000FFF7F6BF4FF00040A0F5800070470000B9
:101140002DE9C04130B4DFF8A0C23CEA111418BF49
:101150003CEA131400F0EC8081EA03051CEA111448
:1011600044EAD57418BF1CEA131500F0C780A4EB3D
:1011700005044FF0004545EAC12145EAC32341EA91
:10118000505143EA525304F17F74994204F50034FC
:101190004FEAC0204FEAC22208BF904200F09C8074
:1011A0004FEA13650FF24016765D4FEA134506FBD2
:1011B00005F7C7F1807706FB07F74FEAD737A7FB9C
:1011C00003687642C8F58038A7FB06CE38BFA8F181
:1011D000010807FB08E64FF0000EA6FB028CE6FBB9
:1011E00003CEDCF1000CCEF1004E38BFAEF1010EA3
:1011F000A6FB0C584FF000074FF00005E6FB0E87EA
:10120000A1FB08C6A0FB07CE16EB0E0645F10005B4
:10121000E1FB076515F1E04E7EBFA4F580345FEA7F
:1012200046066D4116F1800745F100054FEA172784
:101230004FEA066647EA0567A6F1DE46B6F1805F2B
:101240004FEA15251FD9384624F0010C05EBC4716F
:10125000BCF1FE6F01EB0C1102D8F0BCBDE80081BF
:1012600024425CBF01F5801E9EEAC47F02D4F0BC1C
:10127000BDE80081244238D4F0BCA1F1C041BDE8F2
:10128000004100F016B94FEAD22242EA43524FEA37
:10129000D323A7FB02864FEAD02040EA415007FB48
:1012A00003661EEA0E0F4FEAD12105FB026658BF06
:1012B000A6EB0056B6EB00564FEA520E4EEAC37E3E
:1012C00018EB0E0E56EB530EBDD518EB02085E411F
:1012D0007F1C55F10005B6E74FF480154FF000076D
:1012E0004FF000064FF00008ADE7F0BC4FF00000F3
:1012F00001F1C04101F00041BDE8008111EA0C1F7D
:101300000CEA131500D00CE013EA0C1F00F0258046
:101310004FF00000F0BC81EA030101F00041BDE89C
:101320000081F0BCBDE8004181EA030100F0C1B8D2
:10133000F0BCBDE8004170B500F06DF8097EFC3EE0
:1013400000F007B881EA03014FF0000001F000410E
:10135000704781EA030100F0ACB8F0BCBDE8004181
:101360004FF0000021497047FFFDFBF9F7F5F4F25B
:10137000F0EEEDEBE9E8E6E4E3E1E0DEDDDBDAD830
:10138000D7D5D4D3D1D0CFCDCCCBCAC8C7C6C5C48E
:10139000C2C1C0BFBEBDBCBBBAB9B8B7B6B5B4B3A5
:1013A000B2B1B0AFAEADACABAAA9A8A8A7A6A5A490
:1013B000A3A3A2A1A09F9F9E9D9C9C9B9A99999854
:1013C0009797969595949393929191908F8F8E8EF7
:1013D0008D8C8C8B8B8A8989888887878685858484
:1013E00084838382828181800000FF070000F87F70
:1013F000B0FA80F310FA03F10AD0C3F11D0303F52C
:1014000080634FEA41504FEA035202EBD12170470B
:101410004FF0000070470EF1020E2EF0030E5EF842
:10142000046B364205D4012A43EB030515F5001F72
:1014300012D8012841EB010C1CF5001F0CD80ED16D
:101440004FEAD17C15F5001F0CEB4C0C0CF1020C93
:1014500008BF4CEBD37C04E04FF0080C01E04FEAEE
:10146000D37C0CEB4C0526FA05F606F00706B6F120
:10147000040C06D20EEB860CBDE870404CF0010C5B
:101480006047DFE80CF0090B02024FF000414FF01B
:101490000000A1F5002170BD19461046012851EB4E
:1014A000010418BFD4F5001484BF002001F00041EE
:1014B00070BD0808A0F500114FEA31017047FF2107
:1014C00041EAD050C0057047000000000000000055
:1014D0000102030406070809F814000800000020B0
:1014E0001000000028010008081500081000002066
:1014F000C0060000440100080100000010000000C8
:08150000000000000024F400CB
:04000005080000ED02
:00000001FF
